{
  "_format": "hh-sol-artifact-1",
  "contractName": "EasyToken",
  "sourceName": "contracts/EasyToken.sol",
  "abi": [
    {
      "inputs": [],
      "stateMutability": "nonpayable",
      "type": "constructor"
    },
    {
      "inputs": [
        {
          "internalType": "address",
          "name": "spender",
          "type": "address"
        },
        {
          "internalType": "uint256",
          "name": "allowance",
          "type": "uint256"
        },
        {
          "internalType": "uint256",
          "name": "amount",
          "type": "uint256"
        }
      ],
      "name": "InsufficientAllowance",
      "type": "error"
    },
    {
      "inputs": [
        {
          "internalType": "address",
          "name": "sender",
          "type": "address"
        },
        {
          "internalType": "uint256",
          "name": "balance",
          "type": "uint256"
        },
        {
          "internalType": "uint256",
          "name": "amount",
          "type": "uint256"
        }
      ],
      "name": "InsufficientBalance",
      "type": "error"
    },
    {
      "inputs": [
        {
          "internalType": "address",
          "name": "owner",
          "type": "address"
        }
      ],
      "name": "InvalidApprover",
      "type": "error"
    },
    {
      "inputs": [
        {
          "internalType": "address",
          "name": "receiver",
          "type": "address"
        }
      ],
      "name": "InvalidReceiver",
      "type": "error"
    },
    {
      "inputs": [
        {
          "internalType": "address",
          "name": "sender",
          "type": "address"
        }
      ],
      "name": "InvalidSender",
      "type": "error"
    },
    {
      "inputs": [
        {
          "internalType": "address",
          "name": "spender",
          "type": "address"
        }
      ],
      "name": "InvalidSpender",
      "type": "error"
    },
    {
      "anonymous": false,
      "inputs": [
        {
          "indexed": true,
          "internalType": "address",
          "name": "owner",
          "type": "address"
        },
        {
          "indexed": true,
          "internalType": "address",
          "name": "spender",
          "type": "address"
        },
        {
          "indexed": false,
          "internalType": "uint256",
          "name": "value",
          "type": "uint256"
        }
      ],
      "name": "Approval",
      "type": "event"
    },
    {
      "anonymous": false,
      "inputs": [
        {
          "indexed": true,
          "internalType": "address",
          "name": "from",
          "type": "address"
        },
        {
          "indexed": true,
          "internalType": "address",
          "name": "to",
          "type": "address"
        },
        {
          "indexed": false,
          "internalType": "uint256",
          "name": "value",
          "type": "uint256"
        }
      ],
      "name": "Transfer",
      "type": "event"
    },
    {
      "inputs": [
        {
          "internalType": "address",
          "name": "owner",
          "type": "address"
        },
        {
          "internalType": "address",
          "name": "spender",
          "type": "address"
        }
      ],
      "name": "allowance",
      "outputs": [
        {
          "internalType": "uint256",
          "name": "",
          "type": "uint256"
        }
      ],
      "stateMutability": "view",
      "type": "function"
    },
    {
      "inputs": [
        {
          "internalType": "address",
          "name": "spender",
          "type": "address"
        },
        {
          "internalType": "uint256",
          "name": "amount",
          "type": "uint256"
        }
      ],
      "name": "approve",
      "outputs": [
        {
          "internalType": "bool",
          "name": "",
          "type": "bool"
        }
      ],
      "stateMutability": "nonpayable",
      "type": "function"
    },
    {
      "inputs": [
        {
          "internalType": "address",
          "name": "account",
          "type": "address"
        }
      ],
      "name": "balanceOf",
      "outputs": [
        {
          "internalType": "uint256",
          "name": "",
          "type": "uint256"
        }
      ],
      "stateMutability": "view",
      "type": "function"
    },
    {
      "inputs": [],
      "name": "decimals",
      "outputs": [
        {
          "internalType": "uint8",
          "name": "",
          "type": "uint8"
        }
      ],
      "stateMutability": "view",
      "type": "function"
    },
    {
      "inputs": [
        {
          "internalType": "uint256",
          "name": "_amount",
          "type": "uint256"
        }
      ],
      "name": "mint",
      "outputs": [],
      "stateMutability": "nonpayable",
      "type": "function"
    },
    {
      "inputs": [],
      "name": "name",
      "outputs": [
        {
          "internalType": "string",
          "name": "",
          "type": "string"
        }
      ],
      "stateMutability": "view",
      "type": "function"
    },
    {
      "inputs": [],
      "name": "owner",
      "outputs": [
        {
          "internalType": "address",
          "name": "",
          "type": "address"
        }
      ],
      "stateMutability": "view",
      "type": "function"
    },
    {
      "inputs": [],
      "name": "symbol",
      "outputs": [
        {
          "internalType": "string",
          "name": "",
          "type": "string"
        }
      ],
      "stateMutability": "view",
      "type": "function"
    },
    {
      "inputs": [
        {
          "internalType": "address",
          "name": "account",
          "type": "address"
        },
        {
          "internalType": "uint256",
          "name": "amount",
          "type": "uint256"
        }
      ],
      "name": "testMint",
      "outputs": [],
      "stateMutability": "nonpayable",
      "type": "function"
    },
    {
      "inputs": [],
      "name": "totalSupply",
      "outputs": [
        {
          "internalType": "uint256",
          "name": "",
          "type": "uint256"
        }
      ],
      "stateMutability": "view",
      "type": "function"
    },
    {
      "inputs": [
        {
          "internalType": "address",
          "name": "to",
          "type": "address"
        },
        {
          "internalType": "uint256",
          "name": "amount",
          "type": "uint256"
        }
      ],
      "name": "transfer",
      "outputs": [
        {
          "internalType": "bool",
          "name": "",
          "type": "bool"
        }
      ],
      "stateMutability": "nonpayable",
      "type": "function"
    },
    {
      "inputs": [
        {
          "internalType": "address",
          "name": "from",
          "type": "address"
        },
        {
          "internalType": "address",
          "name": "to",
          "type": "address"
        },
        {
          "internalType": "uint256",
          "name": "amount",
          "type": "uint256"
        }
      ],
      "name": "transferFrom",
      "outputs": [
        {
          "internalType": "bool",
          "name": "",
          "type": "bool"
        }
      ],
      "stateMutability": "nonpayable",
      "type": "function"
    }
  ],
  "bytecode": "0x60806040523480156200001157600080fd5b506040518060400160405280600981526020017f45617379546f6b656e00000000000000000000000000000000000000000000008152506040518060400160405280600481526020017f555344450000000000000000000000000000000000000000000000000000000081525060128260009081620000919190620004f3565b508160019081620000a39190620004f3565b5080600260006101000a81548160ff021916908360ff16021790555050505033600660006101000a81548173ffffffffffffffffffffffffffffffffffffffff021916908373ffffffffffffffffffffffffffffffffffffffff1602179055506200011f3369152d02c7e14af68000006200012560201b60201c565b620006d4565b600073ffffffffffffffffffffffffffffffffffffffff168273ffffffffffffffffffffffffffffffffffffffff16036200019a5760006040517f9cfea5830000000000000000000000000000000000000000000000000000000081526004016200019191906200061f565b60405180910390fd5b8060036000828254620001ae91906200066b565b9250508190555080600460008473ffffffffffffffffffffffffffffffffffffffff1673ffffffffffffffffffffffffffffffffffffffff16815260200190815260200160002060008282546200020691906200066b565b925050819055508173ffffffffffffffffffffffffffffffffffffffff16600073ffffffffffffffffffffffffffffffffffffffff167fddf252ad1be2c89b69c2b068fc378daa952ba7f163c4a11628f55a4df523b3ef836040516200026d9190620006b7565b60405180910390a35050565b600081519050919050565b7f4e487b7100000000000000000000000000000000000000000000000000000000600052604160045260246000fd5b7f4e487b7100000000000000000000000000000000000000000000000000000000600052602260045260246000fd5b60006002820490506001821680620002fb57607f821691505b602082108103620003115762000310620002b3565b5b50919050565b60008190508160005260206000209050919050565b60006020601f8301049050919050565b600082821b905092915050565b6000600883026200037b7fffffffffffffffffffffffffffffffffffffffffffffffffffffffffffffffff826200033c565b6200038786836200033c565b95508019841693508086168417925050509392505050565b6000819050919050565b6000819050919050565b6000620003d4620003ce620003c8846200039f565b620003a9565b6200039f565b9050919050565b6000819050919050565b620003f083620003b3565b62000408620003ff82620003db565b84845462000349565b825550505050565b600090565b6200041f62000410565b6200042c818484620003e5565b505050565b5b8181101562000454576200044860008262000415565b60018101905062000432565b5050565b601f821115620004a3576200046d8162000317565b62000478846200032c565b8101602085101562000488578190505b620004a062000497856200032c565b83018262000431565b50505b505050565b600082821c905092915050565b6000620004c860001984600802620004a8565b1980831691505092915050565b6000620004e38383620004b5565b9150826002028217905092915050565b620004fe8262000279565b67ffffffffffffffff8111156200051a576200051962000284565b5b620005268254620002e2565b6200053382828562000458565b600060209050601f8311600181146200056b576000841562000556578287015190505b620005628582620004d5565b865550620005d2565b601f1984166200057b8662000317565b60005b82811015620005a5578489015182556001820191506020850194506020810190506200057e565b86831015620005c55784890151620005c1601f891682620004b5565b8355505b6001600288020188555050505b505050505050565b600073ffffffffffffffffffffffffffffffffffffffff82169050919050565b60006200060782620005da565b9050919050565b6200061981620005fa565b82525050565b60006020820190506200063660008301846200060e565b92915050565b7f4e487b7100000000000000000000000000000000000000000000000000000000600052601160045260246000fd5b600062000678826200039f565b915062000685836200039f565b9250828201905080821115620006a0576200069f6200063c565b5b92915050565b620006b1816200039f565b82525050565b6000602082019050620006ce6000830184620006a6565b92915050565b61131780620006e46000396000f3fe608060405234801561001057600080fd5b50600436106100b45760003560e01c80638da5cb5b116100715780638da5cb5b146101a357806395d89b41146101c1578063a0712d68146101df578063a9059cbb146101fb578063dd62ed3e1461022b578063f28e093d1461025b576100b4565b806306fdde03146100b9578063095ea7b3146100d757806318160ddd1461010757806323b872dd14610125578063313ce5671461015557806370a0823114610173575b600080fd5b6100c1610277565b6040516100ce9190610e38565b60405180910390f35b6100f160048036038101906100ec9190610ef3565b610309565b6040516100fe9190610f4e565b60405180910390f35b61010f610325565b60405161011c9190610f78565b60405180910390f35b61013f600480360381019061013a9190610f93565b61032f565b60405161014c9190610f4e565b60405180910390f35b61015d610357565b60405161016a9190611002565b60405180910390f35b61018d6004803603810190610188919061101d565b61036e565b60405161019a9190610f78565b60405180910390f35b6101ab6103b7565b6040516101b89190611059565b60405180910390f35b6101c96103dd565b6040516101d69190610e38565b60405180910390f35b6101f960048036038101906101f49190611074565b61046f565b005b61021560048036038101906102109190610ef3565b61051f565b6040516102229190610f4e565b60405180910390f35b610245600480360381019061024091906110a1565b61053b565b6040516102529190610f78565b60405180910390f35b61027560048036038101906102709190610ef3565b610648565b005b60606000805461028690611110565b80601f01602080910402602001604051908101604052809291908181526020018280546102b290611110565b80156102ff5780601f106102d4576101008083540402835291602001916102ff565b820191906000526020600020905b8154815290600101906020018083116102e257829003601f168201915b5050505050905090565b60008033905061031a818585610656565b600191505092915050565b6000600354905090565b600080339050610340858285610825565b61034b858585610902565b60019150509392505050565b6000600260009054906101000a900460ff16905090565b6000600460008373ffffffffffffffffffffffffffffffffffffffff1673ffffffffffffffffffffffffffffffffffffffff168152602001908152602001600020549050919050565b600660009054906101000a900473ffffffffffffffffffffffffffffffffffffffff1681565b6060600180546103ec90611110565b80601f016020809104026020016040519081016040528092919081815260200182805461041890611110565b80156104655780601f1061043a57610100808354040283529160200191610465565b820191906000526020600020905b81548152906001019060200180831161044857829003601f168201915b5050505050905090565b600660009054906101000a900473ffffffffffffffffffffffffffffffffffffffff1673ffffffffffffffffffffffffffffffffffffffff163373ffffffffffffffffffffffffffffffffffffffff16146104ff576040517f08c379a00000000000000000000000000000000000000000000000000000000081526004016104f69061118d565b60405180910390fd5b61051c33670de0b6b3a76400008361051791906111dc565b610b71565b50565b600080339050610530818585610902565b600191505092915050565b60006105c382600560008673ffffffffffffffffffffffffffffffffffffffff1673ffffffffffffffffffffffffffffffffffffffff16815260200190815260200160002060008573ffffffffffffffffffffffffffffffffffffffff1673ffffffffffffffffffffffffffffffffffffffff16815260200190815260200160002054610cbc565b600560008473ffffffffffffffffffffffffffffffffffffffff1673ffffffffffffffffffffffffffffffffffffffff16815260200190815260200160002060008373ffffffffffffffffffffffffffffffffffffffff1673ffffffffffffffffffffffffffffffffffffffff16815260200190815260200160002054905092915050565b6106528282610b71565b5050565b600073ffffffffffffffffffffffffffffffffffffffff168373ffffffffffffffffffffffffffffffffffffffff16036106c85760006040517f8bc146c40000000000000000000000000000000000000000000000000000000081526004016106bf9190611059565b60405180910390fd5b600073ffffffffffffffffffffffffffffffffffffffff168273ffffffffffffffffffffffffffffffffffffffff160361073a5760006040517f4e15efda0000000000000000000000000000000000000000000000000000000081526004016107319190611059565b60405180910390fd5b80600560008573ffffffffffffffffffffffffffffffffffffffff1673ffffffffffffffffffffffffffffffffffffffff16815260200190815260200160002060008473ffffffffffffffffffffffffffffffffffffffff1673ffffffffffffffffffffffffffffffffffffffff168152602001908152602001600020819055508173ffffffffffffffffffffffffffffffffffffffff168373ffffffffffffffffffffffffffffffffffffffff167f8c5be1e5ebec7d5bd14f71427d1e84f3dd0314c0f7b2291e5b200ac8c7c3b925836040516108189190610f78565b60405180910390a3505050565b6000600560008573ffffffffffffffffffffffffffffffffffffffff1673ffffffffffffffffffffffffffffffffffffffff16815260200190815260200160002060008473ffffffffffffffffffffffffffffffffffffffff1673ffffffffffffffffffffffffffffffffffffffff168152602001908152602001600020549050818110156108ef578281836040517f192b9e4e0000000000000000000000000000000000000000000000000000000081526004016108e69392919061121e565b60405180910390fd5b6108fc8484848403610656565b50505050565b600073ffffffffffffffffffffffffffffffffffffffff168373ffffffffffffffffffffffffffffffffffffffff16036109745760006040517f4c14f64c00000000000000000000000000000000000000000000000000000000815260040161096b9190611059565b60405180910390fd5b600073ffffffffffffffffffffffffffffffffffffffff168273ffffffffffffffffffffffffffffffffffffffff16036109e65760006040517f9cfea5830000000000000000000000000000000000000000000000000000000081526004016109dd9190611059565b60405180910390fd5b6000600460008573ffffffffffffffffffffffffffffffffffffffff1673ffffffffffffffffffffffffffffffffffffffff16815260200190815260200160002054905081811015610a73578381836040517fdb42144d000000000000000000000000000000000000000000000000000000008152600401610a6a9392919061121e565b60405180910390fd5b818103600460008673ffffffffffffffffffffffffffffffffffffffff1673ffffffffffffffffffffffffffffffffffffffff1681526020019081526020016000208190555081600460008573ffffffffffffffffffffffffffffffffffffffff1673ffffffffffffffffffffffffffffffffffffffff168152602001908152602001600020600082825401925050819055508273ffffffffffffffffffffffffffffffffffffffff168473ffffffffffffffffffffffffffffffffffffffff167fddf252ad1be2c89b69c2b068fc378daa952ba7f163c4a11628f55a4df523b3ef84604051610b639190610f78565b60405180910390a350505050565b600073ffffffffffffffffffffffffffffffffffffffff168273ffffffffffffffffffffffffffffffffffffffff1603610be35760006040517f9cfea583000000000000000000000000000000000000000000000000000000008152600401610bda9190611059565b60405180910390fd5b8060036000828254610bf59190611255565b9250508190555080600460008473ffffffffffffffffffffffffffffffffffffffff1673ffffffffffffffffffffffffffffffffffffffff1681526020019081526020016000206000828254610c4b9190611255565b925050819055508173ffffffffffffffffffffffffffffffffffffffff16600073ffffffffffffffffffffffffffffffffffffffff167fddf252ad1be2c89b69c2b068fc378daa952ba7f163c4a11628f55a4df523b3ef83604051610cb09190610f78565b60405180910390a35050565b610d548282604051602401610cd2929190611289565b6040516020818303038152906040527f8309e8a8000000000000000000000000000000000000000000000000000000007bffffffffffffffffffffffffffffffffffffffffffffffffffffffff19166020820180517bffffffffffffffffffffffffffffffffffffffffffffffffffffffff8381831617835250505050610d58565b5050565b610d6f81610d67610d72610d93565b63ffffffff16565b50565b60006a636f6e736f6c652e6c6f679050600080835160208501845afa505050565b610d9e819050919050565b610da66112b2565b565b600081519050919050565b600082825260208201905092915050565b60005b83811015610de2578082015181840152602081019050610dc7565b60008484015250505050565b6000601f19601f8301169050919050565b6000610e0a82610da8565b610e148185610db3565b9350610e24818560208601610dc4565b610e2d81610dee565b840191505092915050565b60006020820190508181036000830152610e528184610dff565b905092915050565b600080fd5b600073ffffffffffffffffffffffffffffffffffffffff82169050919050565b6000610e8a82610e5f565b9050919050565b610e9a81610e7f565b8114610ea557600080fd5b50565b600081359050610eb781610e91565b92915050565b6000819050919050565b610ed081610ebd565b8114610edb57600080fd5b50565b600081359050610eed81610ec7565b92915050565b60008060408385031215610f0a57610f09610e5a565b5b6000610f1885828601610ea8565b9250506020610f2985828601610ede565b9150509250929050565b60008115159050919050565b610f4881610f33565b82525050565b6000602082019050610f636000830184610f3f565b92915050565b610f7281610ebd565b82525050565b6000602082019050610f8d6000830184610f69565b92915050565b600080600060608486031215610fac57610fab610e5a565b5b6000610fba86828701610ea8565b9350506020610fcb86828701610ea8565b9250506040610fdc86828701610ede565b9150509250925092565b600060ff82169050919050565b610ffc81610fe6565b82525050565b60006020820190506110176000830184610ff3565b92915050565b60006020828403121561103357611032610e5a565b5b600061104184828501610ea8565b91505092915050565b61105381610e7f565b82525050565b600060208201905061106e600083018461104a565b92915050565b60006020828403121561108a57611089610e5a565b5b600061109884828501610ede565b91505092915050565b600080604083850312156110b8576110b7610e5a565b5b60006110c685828601610ea8565b92505060206110d785828601610ea8565b9150509250929050565b7f4e487b7100000000000000000000000000000000000000000000000000000000600052602260045260246000fd5b6000600282049050600182168061112857607f821691505b60208210810361113b5761113a6110e1565b5b50919050565b7f796f7520617265206e6f74206f776e6572000000000000000000000000000000600082015250565b6000611177601183610db3565b915061118282611141565b602082019050919050565b600060208201905081810360008301526111a68161116a565b9050919050565b7f4e487b7100000000000000000000000000000000000000000000000000000000600052601160045260246000fd5b60006111e782610ebd565b91506111f283610ebd565b925082820261120081610ebd565b91508282048414831517611217576112166111ad565b5b5092915050565b6000606082019050611233600083018661104a565b6112406020830185610f69565b61124d6040830184610f69565b949350505050565b600061126082610ebd565b915061126b83610ebd565b9250828201905080821115611283576112826111ad565b5b92915050565b600060408201905061129e600083018561104a565b6112ab6020830184610f69565b9392505050565b7f4e487b7100000000000000000000000000000000000000000000000000000000600052605160045260246000fdfea26469706673582212209d53876c2f649b4a5da2be28f0cb54f43948a202281fafc6605eaeba3c7814ee64736f6c63430008180033",
  "linkReferences": {},
  "deployedLinkReferences": {}
}