{
  "_format": "hh-sol-artifact-1",
  "contractName": "EasyStake",
  "sourceName": "contracts/EasyStake.sol",
  "abi": [
    {
      "inputs": [
        {
          "internalType": "address",
          "name": "_tkenAddress",
          "type": "address"
        },
        {
          "internalType": "address",
          "name": "_nftAddress",
          "type": "address"
        }
      ],
      "stateMutability": "nonpayable",
      "type": "constructor"
    },
    {
      "inputs": [],
      "name": "TimeHasNotEllapsed",
      "type": "error"
    },
    {
      "anonymous": false,
      "inputs": [
        {
          "indexed": true,
          "internalType": "address",
          "name": "user",
          "type": "address"
        },
        {
          "indexed": false,
          "internalType": "uint8",
          "name": "nft",
          "type": "uint8"
        },
        {
          "indexed": false,
          "internalType": "bool",
          "name": "convertTokenToNft",
          "type": "bool"
        }
      ],
      "name": "RewardClaimed",
      "type": "event"
    },
    {
      "anonymous": false,
      "inputs": [
        {
          "indexed": true,
          "internalType": "address",
          "name": "user",
          "type": "address"
        },
        {
          "indexed": false,
          "internalType": "uint256",
          "name": "amount",
          "type": "uint256"
        },
        {
          "indexed": false,
          "internalType": "uint8",
          "name": "poolId",
          "type": "uint8"
        }
      ],
      "name": "Staked",
      "type": "event"
    },
    {
      "inputs": [],
      "name": "convertNftBackToTokens",
      "outputs": [],
      "stateMutability": "nonpayable",
      "type": "function"
    },
    {
      "inputs": [],
      "name": "easyToken",
      "outputs": [
        {
          "internalType": "contract IERC20",
          "name": "",
          "type": "address"
        }
      ],
      "stateMutability": "view",
      "type": "function"
    },
    {
      "inputs": [],
      "name": "getEasyStakeBalance",
      "outputs": [
        {
          "internalType": "uint256",
          "name": "",
          "type": "uint256"
        }
      ],
      "stateMutability": "view",
      "type": "function"
    },
    {
      "inputs": [],
      "name": "nftToken",
      "outputs": [
        {
          "internalType": "contract IERC1155Mintable",
          "name": "",
          "type": "address"
        }
      ],
      "stateMutability": "view",
      "type": "function"
    },
    {
      "inputs": [],
      "name": "owner",
      "outputs": [
        {
          "internalType": "address",
          "name": "",
          "type": "address"
        }
      ],
      "stateMutability": "view",
      "type": "function"
    },
    {
      "inputs": [
        {
          "internalType": "uint8",
          "name": "",
          "type": "uint8"
        },
        {
          "internalType": "address",
          "name": "",
          "type": "address"
        }
      ],
      "name": "pools",
      "outputs": [
        {
          "internalType": "uint256",
          "name": "amountStaked",
          "type": "uint256"
        },
        {
          "internalType": "uint256",
          "name": "stakedAt",
          "type": "uint256"
        },
        {
          "internalType": "uint256",
          "name": "finishesAt",
          "type": "uint256"
        },
        {
          "internalType": "uint8",
          "name": "nftReward",
          "type": "uint8"
        },
        {
          "internalType": "bool",
          "name": "claimed",
          "type": "bool"
        }
      ],
      "stateMutability": "view",
      "type": "function"
    },
    {
      "inputs": [
        {
          "internalType": "uint256",
          "name": "_amount",
          "type": "uint256"
        },
        {
          "internalType": "uint8",
          "name": "_poolId",
          "type": "uint8"
        }
      ],
      "name": "stake",
      "outputs": [],
      "stateMutability": "nonpayable",
      "type": "function"
    }
  ],
  "bytecode": "0x608060405234801561001057600080fd5b50604051610e13380380610e138339818101604052810190610032919061015e565b336000806101000a81548173ffffffffffffffffffffffffffffffffffffffff021916908373ffffffffffffffffffffffffffffffffffffffff16021790555081600160006101000a81548173ffffffffffffffffffffffffffffffffffffffff021916908373ffffffffffffffffffffffffffffffffffffffff16021790555080600260006101000a81548173ffffffffffffffffffffffffffffffffffffffff021916908373ffffffffffffffffffffffffffffffffffffffff160217905550505061019e565b600080fd5b600073ffffffffffffffffffffffffffffffffffffffff82169050919050565b600061012b82610100565b9050919050565b61013b81610120565b811461014657600080fd5b50565b60008151905061015881610132565b92915050565b60008060408385031215610175576101746100fb565b5b600061018385828601610149565b925050602061019485828601610149565b9150509250929050565b610c66806101ad6000396000f3fe608060405234801561001057600080fd5b506004361061007d5760003560e01c806380ccf0211161005b57806380ccf021146100f05780638da5cb5b146100fa578063d06fcba814610118578063d08695db146101365761007d565b806310087fb1146100825780635f70ea851461009e578063740513ea146100d2575b600080fd5b61009c60048036038101906100979190610755565b610154565b005b6100b860048036038101906100b391906107f3565b61054d565b6040516100c995949392919061086c565b60405180910390f35b6100da6105aa565b6040516100e7919061091e565b60405180910390f35b6100f86105d0565b005b6101026105d2565b60405161010f9190610948565b60405180910390f35b6101206105f6565b60405161012d9190610984565b60405180910390f35b61013e61061c565b60405161014b919061099f565b60405180910390f35b60028160ff16111561019b576040517f08c379a000000000000000000000000000000000000000000000000000000000815260040161019290610a17565b60405180910390fd5b81600160009054906101000a900473ffffffffffffffffffffffffffffffffffffffff1673ffffffffffffffffffffffffffffffffffffffff166370a08231336040518263ffffffff1660e01b81526004016101f79190610948565b602060405180830381865afa158015610214573d6000803e3d6000fd5b505050506040513d601f19601f820116820180604052508101906102389190610a4c565b11610278576040517f08c379a000000000000000000000000000000000000000000000000000000000815260040161026f90610ac5565b60405180910390fd5b600160009054906101000a900473ffffffffffffffffffffffffffffffffffffffff1673ffffffffffffffffffffffffffffffffffffffff166323b872dd3330856040518463ffffffff1660e01b81526004016102d793929190610ae5565b6020604051808303816000875af11580156102f6573d6000803e3d6000fd5b505050506040513d601f19601f8201168201806040525081019061031a9190610b48565b5060006040518060600160405280600160ff168152602001600260ff168152602001600360ff16815250905061034e6106bf565b62093a804261035d9190610ba4565b8160006003811061037157610370610bd8565b5b60200201818152505062127500426103899190610ba4565b8160016003811061039d5761039c610bd8565b5b602002018181525050621baf80426103b59190610ba4565b816002600381106103c9576103c8610bd8565b5b6020020181815250506000828460ff16600381106103ea576103e9610bd8565b5b602002015190506000828560ff166003811061040957610408610bd8565b5b602002015190506040518060a001604052808781526020014281526020018281526020018360ff16815260200160001515815250600360008760ff1660ff16815260200190815260200160002060003373ffffffffffffffffffffffffffffffffffffffff1673ffffffffffffffffffffffffffffffffffffffff16815260200190815260200160002060008201518160000155602082015181600101556040820151816002015560608201518160030160006101000a81548160ff021916908360ff16021790555060808201518160030160016101000a81548160ff0219169083151502179055509050503373ffffffffffffffffffffffffffffffffffffffff167f8acf475137e0cd74ca7f611d16b1e6383ec9a9c71a8e5b85967781b9c7214d11878760405161053d929190610c07565b60405180910390a2505050505050565b6003602052816000526040600020602052806000526040600020600091509150508060000154908060010154908060020154908060030160009054906101000a900460ff16908060030160019054906101000a900460ff16905085565b600160009054906101000a900473ffffffffffffffffffffffffffffffffffffffff1681565b565b60008054906101000a900473ffffffffffffffffffffffffffffffffffffffff1681565b600260009054906101000a900473ffffffffffffffffffffffffffffffffffffffff1681565b6000600160009054906101000a900473ffffffffffffffffffffffffffffffffffffffff1673ffffffffffffffffffffffffffffffffffffffff166370a08231306040518263ffffffff1660e01b81526004016106799190610948565b602060405180830381865afa158015610696573d6000803e3d6000fd5b505050506040513d601f19601f820116820180604052508101906106ba9190610a4c565b905090565b6040518060600160405280600390602082028036833780820191505090505090565b600080fd5b6000819050919050565b6106f9816106e6565b811461070457600080fd5b50565b600081359050610716816106f0565b92915050565b600060ff82169050919050565b6107328161071c565b811461073d57600080fd5b50565b60008135905061074f81610729565b92915050565b6000806040838503121561076c5761076b6106e1565b5b600061077a85828601610707565b925050602061078b85828601610740565b9150509250929050565b600073ffffffffffffffffffffffffffffffffffffffff82169050919050565b60006107c082610795565b9050919050565b6107d0816107b5565b81146107db57600080fd5b50565b6000813590506107ed816107c7565b92915050565b6000806040838503121561080a576108096106e1565b5b600061081885828601610740565b9250506020610829858286016107de565b9150509250929050565b61083c816106e6565b82525050565b61084b8161071c565b82525050565b60008115159050919050565b61086681610851565b82525050565b600060a0820190506108816000830188610833565b61088e6020830187610833565b61089b6040830186610833565b6108a86060830185610842565b6108b5608083018461085d565b9695505050505050565b6000819050919050565b60006108e46108df6108da84610795565b6108bf565b610795565b9050919050565b60006108f6826108c9565b9050919050565b6000610908826108eb565b9050919050565b610918816108fd565b82525050565b6000602082019050610933600083018461090f565b92915050565b610942816107b5565b82525050565b600060208201905061095d6000830184610939565b92915050565b600061096e826108eb565b9050919050565b61097e81610963565b82525050565b60006020820190506109996000830184610975565b92915050565b60006020820190506109b46000830184610833565b92915050565b600082825260208201905092915050565b7f696e76616c696420706f6f6c0000000000000000000000000000000000000000600082015250565b6000610a01600c836109ba565b9150610a0c826109cb565b602082019050919050565b60006020820190508181036000830152610a30816109f4565b9050919050565b600081519050610a46816106f0565b92915050565b600060208284031215610a6257610a616106e1565b5b6000610a7084828501610a37565b91505092915050565b7f696e73756666696369656e7420746f6b656e7300000000000000000000000000600082015250565b6000610aaf6013836109ba565b9150610aba82610a79565b602082019050919050565b60006020820190508181036000830152610ade81610aa2565b9050919050565b6000606082019050610afa6000830186610939565b610b076020830185610939565b610b146040830184610833565b949350505050565b610b2581610851565b8114610b3057600080fd5b50565b600081519050610b4281610b1c565b92915050565b600060208284031215610b5e57610b5d6106e1565b5b6000610b6c84828501610b33565b91505092915050565b7f4e487b7100000000000000000000000000000000000000000000000000000000600052601160045260246000fd5b6000610baf826106e6565b9150610bba836106e6565b9250828201905080821115610bd257610bd1610b75565b5b92915050565b7f4e487b7100000000000000000000000000000000000000000000000000000000600052603260045260246000fd5b6000604082019050610c1c6000830185610833565b610c296020830184610842565b939250505056fea2646970667358221220d7f7d43ba82ebcf4338e62a0593559aec9243e0fd1c0022c12416d9e7a23c61f64736f6c63430008180033",
  "linkReferences": {},
  "deployedLinkReferences": {}
}